{
  "_format": "hh-sol-artifact-1",
  "contractName": "MainVault",
  "sourceName": "contracts/MainVault.sol",
  "abi": [
    {
      "inputs": [
        {
          "internalType": "address",
          "name": "_apeCoin",
          "type": "address"
        }
      ],
      "stateMutability": "nonpayable",
      "type": "constructor"
    },
    {
      "anonymous": false,
      "inputs": [
        {
          "indexed": true,
          "internalType": "address",
          "name": "winner",
          "type": "address"
        },
        {
          "indexed": false,
          "internalType": "uint256",
          "name": "amount",
          "type": "uint256"
        }
      ],
      "name": "RewardTransferred",
      "type": "event"
    },
    {
      "anonymous": false,
      "inputs": [
        {
          "indexed": false,
          "internalType": "uint256",
          "name": "totalReward",
          "type": "uint256"
        },
        {
          "indexed": false,
          "internalType": "uint256",
          "name": "rewardPerWinner",
          "type": "uint256"
        }
      ],
      "name": "RewardsDistributed",
      "type": "event"
    },
    {
      "inputs": [],
      "name": "apeCoin",
      "outputs": [
        {
          "internalType": "contract IERC20",
          "name": "",
          "type": "address"
        }
      ],
      "stateMutability": "view",
      "type": "function"
    },
    {
      "inputs": [
        {
          "internalType": "address[]",
          "name": "winners",
          "type": "address[]"
        }
      ],
      "name": "distributeRewards",
      "outputs": [],
      "stateMutability": "nonpayable",
      "type": "function"
    },
    {
      "inputs": [
        {
          "internalType": "uint256",
          "name": "winnerCount",
          "type": "uint256"
        }
      ],
      "name": "getRewardPerWinner",
      "outputs": [
        {
          "internalType": "uint256",
          "name": "",
          "type": "uint256"
        }
      ],
      "stateMutability": "view",
      "type": "function"
    },
    {
      "inputs": [
        {
          "internalType": "address",
          "name": "account",
          "type": "address"
        }
      ],
      "name": "getTokenBalance",
      "outputs": [
        {
          "internalType": "uint256",
          "name": "",
          "type": "uint256"
        }
      ],
      "stateMutability": "view",
      "type": "function"
    },
    {
      "inputs": [],
      "name": "getTotalReward",
      "outputs": [
        {
          "internalType": "uint256",
          "name": "",
          "type": "uint256"
        }
      ],
      "stateMutability": "view",
      "type": "function"
    }
  ],
  "bytecode": "0x608060405234801561001057600080fd5b5060405161071438038061071483398101604081905261002f91610054565b600080546001600160a01b0319166001600160a01b0392909216919091179055610084565b60006020828403121561006657600080fd5b81516001600160a01b038116811461007d57600080fd5b9392505050565b610681806100936000396000f3fe608060405234801561001057600080fd5b50600436106100575760003560e01c80631aed0aa21461005c5780633aecd0e3146100825780637d1fcbfa14610095578063ac7ad9ba1461009d578063c5a55152146100c8575b600080fd5b61006f61006a366004610486565b6100dd565b6040519081526020015b60405180910390f35b61006f6100903660046104bb565b6101be565b61006f610233565b6000546100b0906001600160a01b031681565b6040516001600160a01b039091168152602001610079565b6100db6100d63660046104ec565b6102a5565b005b600080821161013e5760405162461bcd60e51b815260206004820152602360248201527f57696e6e657220636f756e74206d75737420626520677265617465722074686160448201526206e20360ec1b606482015260840160405180910390fd5b600080546040516370a0823160e01b81523060048201526001600160a01b03909116906370a0823190602401602060405180830381865afa158015610187573d6000803e3d6000fd5b505050506040513d601f19601f820116820180604052508101906101ab91906105b1565b90506101b783826105ca565b9392505050565b600080546040516370a0823160e01b81526001600160a01b038481166004830152909116906370a0823190602401602060405180830381865afa158015610209573d6000803e3d6000fd5b505050506040513d601f19601f8201168201806040525081019061022d91906105b1565b92915050565b600080546040516370a0823160e01b81523060048201526001600160a01b03909116906370a0823190602401602060405180830381865afa15801561027c573d6000803e3d6000fd5b505050506040513d601f19601f820116820180604052508101906102a091906105b1565b905090565b600080546040516370a0823160e01b81523060048201526001600160a01b03909116906370a0823190602401602060405180830381865afa1580156102ee573d6000803e3d6000fd5b505050506040513d601f19601f8201168201806040525081019061031291906105b1565b9050600082518261032391906105ca565b60408051848152602081018390529192507f29e98ba00d07f171959c4ddcd2f3020debc7c52cf537a034d7e664340d098c6c910160405180910390a160005b83518110156104805760005484516001600160a01b039091169063a9059cbb90869084908110610394576103946105ec565b6020026020010151846040518363ffffffff1660e01b81526004016103ce9291906001600160a01b03929092168252602082015260400190565b6020604051808303816000875af11580156103ed573d6000803e3d6000fd5b505050506040513d601f19601f820116820180604052508101906104119190610602565b50838181518110610424576104246105ec565b60200260200101516001600160a01b03167f9c944f9bf53dd7797190e4b01a2e438a604c4d8f33a684d386a7e937692961418360405161046691815260200190565b60405180910390a28061047881610624565b915050610362565b50505050565b60006020828403121561049857600080fd5b5035919050565b80356001600160a01b03811681146104b657600080fd5b919050565b6000602082840312156104cd57600080fd5b6101b78261049f565b634e487b7160e01b600052604160045260246000fd5b600060208083850312156104ff57600080fd5b823567ffffffffffffffff8082111561051757600080fd5b818501915085601f83011261052b57600080fd5b81358181111561053d5761053d6104d6565b8060051b604051601f19603f83011681018181108582111715610562576105626104d6565b60405291825284820192508381018501918883111561058057600080fd5b938501935b828510156105a5576105968561049f565b84529385019392850192610585565b98975050505050505050565b6000602082840312156105c357600080fd5b5051919050565b6000826105e757634e487b7160e01b600052601260045260246000fd5b500490565b634e487b7160e01b600052603260045260246000fd5b60006020828403121561061457600080fd5b815180151581146101b757600080fd5b60006001820161064457634e487b7160e01b600052601160045260246000fd5b506001019056fea2646970667358221220f648f3c472a62cf9198f61a45a82cd242b81ade4ccd23475e1eb79988fa86ea064736f6c63430008140033",
  "linkReferences": {},
  "deployedLinkReferences": {}
}