{
  "_format": "hh-sol-artifact-1",
  "contractName": "RentalContract",
  "sourceName": "contracts/RentalContract.sol",
  "abi": [
    {
      "inputs": [
        {
          "internalType": "address",
          "name": "_bayc",
          "type": "address"
        },
        {
          "internalType": "address",
          "name": "_apeCoin",
          "type": "address"
        },
        {
          "internalType": "address",
          "name": "_vaultAddress",
          "type": "address"
        }
      ],
      "stateMutability": "nonpayable",
      "type": "constructor"
    },
    {
      "anonymous": false,
      "inputs": [],
      "name": "AllRentalsEnded",
      "type": "event"
    },
    {
      "anonymous": false,
      "inputs": [
        {
          "indexed": true,
          "internalType": "uint256",
          "name": "tokenId",
          "type": "uint256"
        },
        {
          "indexed": true,
          "internalType": "address",
          "name": "owner",
          "type": "address"
        },
        {
          "indexed": false,
          "internalType": "uint256",
          "name": "price",
          "type": "uint256"
        },
        {
          "indexed": false,
          "internalType": "uint256",
          "name": "endTime",
          "type": "uint256"
        }
      ],
      "name": "RentalListed",
      "type": "event"
    },
    {
      "anonymous": false,
      "inputs": [
        {
          "indexed": true,
          "internalType": "uint256",
          "name": "tokenId",
          "type": "uint256"
        },
        {
          "indexed": true,
          "internalType": "address",
          "name": "renter",
          "type": "address"
        }
      ],
      "name": "RentalStarted",
      "type": "event"
    },
    {
      "inputs": [
        {
          "internalType": "address",
          "name": "",
          "type": "address"
        }
      ],
      "name": "addressToTokenId",
      "outputs": [
        {
          "internalType": "uint256",
          "name": "",
          "type": "uint256"
        }
      ],
      "stateMutability": "view",
      "type": "function"
    },
    {
      "inputs": [],
      "name": "apeCoin",
      "outputs": [
        {
          "internalType": "contract IERC20",
          "name": "",
          "type": "address"
        }
      ],
      "stateMutability": "view",
      "type": "function"
    },
    {
      "inputs": [],
      "name": "bayc",
      "outputs": [
        {
          "internalType": "contract IERC721",
          "name": "",
          "type": "address"
        }
      ],
      "stateMutability": "view",
      "type": "function"
    },
    {
      "inputs": [],
      "name": "endAllRentals",
      "outputs": [],
      "stateMutability": "nonpayable",
      "type": "function"
    },
    {
      "inputs": [
        {
          "internalType": "uint256",
          "name": "tokenId",
          "type": "uint256"
        }
      ],
      "name": "getRentalDetails",
      "outputs": [
        {
          "components": [
            {
              "internalType": "address",
              "name": "owner",
              "type": "address"
            },
            {
              "internalType": "address",
              "name": "renter",
              "type": "address"
            },
            {
              "internalType": "uint256",
              "name": "price",
              "type": "uint256"
            },
            {
              "internalType": "uint256",
              "name": "endTime",
              "type": "uint256"
            }
          ],
          "internalType": "struct RentalContract.Rental",
          "name": "",
          "type": "tuple"
        }
      ],
      "stateMutability": "view",
      "type": "function"
    },
    {
      "inputs": [
        {
          "internalType": "uint256",
          "name": "tokenId",
          "type": "uint256"
        }
      ],
      "name": "isRented",
      "outputs": [
        {
          "internalType": "bool",
          "name": "",
          "type": "bool"
        }
      ],
      "stateMutability": "view",
      "type": "function"
    },
    {
      "inputs": [
        {
          "internalType": "uint256",
          "name": "tokenId",
          "type": "uint256"
        },
        {
          "internalType": "uint256",
          "name": "price",
          "type": "uint256"
        },
        {
          "internalType": "uint256",
          "name": "duration",
          "type": "uint256"
        }
      ],
      "name": "listForRent",
      "outputs": [],
      "stateMutability": "nonpayable",
      "type": "function"
    },
    {
      "inputs": [
        {
          "internalType": "uint256",
          "name": "tokenId",
          "type": "uint256"
        }
      ],
      "name": "rent",
      "outputs": [],
      "stateMutability": "nonpayable",
      "type": "function"
    },
    {
      "inputs": [
        {
          "internalType": "uint256",
          "name": "",
          "type": "uint256"
        }
      ],
      "name": "rentals",
      "outputs": [
        {
          "internalType": "address",
          "name": "owner",
          "type": "address"
        },
        {
          "internalType": "address",
          "name": "renter",
          "type": "address"
        },
        {
          "internalType": "uint256",
          "name": "price",
          "type": "uint256"
        },
        {
          "internalType": "uint256",
          "name": "endTime",
          "type": "uint256"
        }
      ],
      "stateMutability": "view",
      "type": "function"
    },
    {
      "inputs": [],
      "name": "vaultAddress",
      "outputs": [
        {
          "internalType": "address",
          "name": "",
          "type": "address"
        }
      ],
      "stateMutability": "view",
      "type": "function"
    }
  ],
  "bytecode": "0x608060405234801561001057600080fd5b506040516109c23803806109c283398101604081905261002f9161008d565b600080546001600160a01b039485166001600160a01b0319918216179091556001805493851693821693909317909255600280549190931691161790556100d0565b80516001600160a01b038116811461008857600080fd5b919050565b6000806000606084860312156100a257600080fd5b6100ab84610071565b92506100b960208501610071565b91506100c760408501610071565b90509250925092565b6108e3806100df6000396000f3fe608060405234801561001057600080fd5b506004361061009e5760003560e01c8063945ec30e11610066578063945ec30e146101ee578063aa15d40f14610201578063ac7ad9ba1461023f578063af94a1d114610252578063d070aee8146102c157600080fd5b806317088b34146100a3578063430bf08a1461016d5780636511bf2e146101985780637456be7d146101c65780637685807d146101db575b600080fd5b6101236100b1366004610783565b60408051608081018252600080825260208201819052918101829052606081019190915250600090815260036020818152604092839020835160808101855281546001600160a01b03908116825260018301541692810192909252600281015493820193909352910154606082015290565b604051610164919081516001600160a01b03908116825260208084015190911690820152604080830151908201526060918201519181019190915260800190565b60405180910390f35b600254610180906001600160a01b031681565b6040516001600160a01b039091168152602001610164565b6101b86101a63660046107b4565b60046020526000908152604090205481565b604051908152602001610164565b6101d96101d4366004610783565b6102c9565b005b600054610180906001600160a01b031681565b6101d96101fc3660046107d8565b610584565b61022f61020f366004610783565b6000908152600360205260409020600101546001600160a01b0316151590565b6040519015158152602001610164565b600154610180906001600160a01b031681565b610296610260366004610783565b600360208190526000918252604090912080546001820154600283015492909301546001600160a01b0391821693909116919084565b604080516001600160a01b039586168152949093166020850152918301526060820152608001610164565b6101d96106fd565b600081815260036020526040902080546001600160a01b03166103205760405162461bcd60e51b815260206004820152600a602482015269139bdd081b1a5cdd195960b21b60448201526064015b60405180910390fd5b60018101546001600160a01b03161561036c5760405162461bcd60e51b815260206004820152600e60248201526d105b1c9958591e481c995b9d195960921b6044820152606401610317565b60015481546002808401546001600160a01b03938416936323b872dd933393911691610398919061081a565b6040516001600160e01b031960e086901b1681526001600160a01b03938416600482015292909116602483015260448201526064016020604051808303816000875af11580156103ec573d6000803e3d6000fd5b505050506040513d601f19601f82011682018060405250810190610410919061083c565b61044d5760405162461bcd60e51b815260206004820152600e60248201526d14185e5b595b9d0819985a5b195960921b6044820152606401610317565b60015460028054838201546001600160a01b03938416936323b872dd9333939091169161047a919061081a565b6040516001600160e01b031960e086901b1681526001600160a01b03938416600482015292909116602483015260448201526064016020604051808303816000875af11580156104ce573d6000803e3d6000fd5b505050506040513d601f19601f820116820180604052508101906104f2919061083c565b61053e5760405162461bcd60e51b815260206004820152601760248201527f5061796d656e7420746f207661756c74206661696c65640000000000000000006044820152606401610317565b6001810180546001600160a01b0319163390811790915560405183907f62bb33f8142014653c2a30ca6e81782d452ea01092cfbddb4b2f14aa659df21290600090a35050565b6000546040516331a9108f60e11b81526004810185905233916001600160a01b031690636352211e90602401602060405180830381865afa1580156105cd573d6000803e3d6000fd5b505050506040513d601f19601f820116820180604052508101906105f1919061085e565b6001600160a01b0316146106335760405162461bcd60e51b81526020600482015260096024820152682737ba1037bbb732b960b91b6044820152606401610317565b60408051608081018252338152600060208201529081018390526060810161065b834261087b565b9052600084815260036020818152604092839020845181546001600160a01b03199081166001600160a01b039283161783559286015160018301805490941691161790915591830151600283015560609092015191015533837f47808dae35e0b91168862c50a29345ac23efc95d193fec76b758888cd7b17b52846106e0854261087b565b6040805192835260208301919091520160405180910390a3505050565b60015b60148111610757576000818152600360205260409020546001600160a01b03161561074557600081815260036020526040902060010180546001600160a01b03191690555b8061074f81610894565b915050610700565b506040517f58837fec3a368aaf9e68d1adb5f0e387f10daf7cf198dc4ab61841e62cb9a10290600090a1565b60006020828403121561079557600080fd5b5035919050565b6001600160a01b03811681146107b157600080fd5b50565b6000602082840312156107c657600080fd5b81356107d18161079c565b9392505050565b6000806000606084860312156107ed57600080fd5b505081359360208301359350604090920135919050565b634e487b7160e01b600052601160045260246000fd5b60008261083757634e487b7160e01b600052601260045260246000fd5b500490565b60006020828403121561084e57600080fd5b815180151581146107d157600080fd5b60006020828403121561087057600080fd5b81516107d18161079c565b8082018082111561088e5761088e610804565b92915050565b6000600182016108a6576108a6610804565b506001019056fea2646970667358221220b94fa14da1456fdd12b068ef0302daf432a4eb2ef2f561ee59de63404284ff6064736f6c63430008140033",
  "linkReferences": {},
  "deployedLinkReferences": {}
}